{
  "_format": "hh-sol-artifact-1",
  "contractName": "NFTBlocks",
  "sourceName": "contracts/NFTBlocks.sol",
  "abi": [
    {
      "inputs": [],
      "stateMutability": "nonpayable",
      "type": "constructor"
    },
    {
      "anonymous": false,
      "inputs": [
        {
          "indexed": true,
          "internalType": "address",
          "name": "owner",
          "type": "address"
        },
        {
          "indexed": true,
          "internalType": "address",
          "name": "approved",
          "type": "address"
        },
        {
          "indexed": true,
          "internalType": "uint256",
          "name": "tokenId",
          "type": "uint256"
        }
      ],
      "name": "Approval",
      "type": "event"
    },
    {
      "anonymous": false,
      "inputs": [
        {
          "indexed": true,
          "internalType": "address",
          "name": "owner",
          "type": "address"
        },
        {
          "indexed": true,
          "internalType": "address",
          "name": "operator",
          "type": "address"
        },
        {
          "indexed": false,
          "internalType": "bool",
          "name": "approved",
          "type": "bool"
        }
      ],
      "name": "ApprovalForAll",
      "type": "event"
    },
    {
      "anonymous": false,
      "inputs": [
        {
          "indexed": true,
          "internalType": "address",
          "name": "from",
          "type": "address"
        },
        {
          "indexed": true,
          "internalType": "address",
          "name": "to",
          "type": "address"
        },
        {
          "indexed": true,
          "internalType": "uint256",
          "name": "tokenId",
          "type": "uint256"
        }
      ],
      "name": "Transfer",
      "type": "event"
    },
    {
      "inputs": [
        {
          "internalType": "uint256",
          "name": "",
          "type": "uint256"
        }
      ],
      "name": "allNFTBlocks",
      "outputs": [
        {
          "internalType": "uint256",
          "name": "tokenId",
          "type": "uint256"
        },
        {
          "internalType": "string",
          "name": "tokenName",
          "type": "string"
        },
        {
          "internalType": "string",
          "name": "tokenURI",
          "type": "string"
        },
        {
          "internalType": "address payable",
          "name": "mintedBy",
          "type": "address"
        },
        {
          "internalType": "address payable",
          "name": "currentOwner",
          "type": "address"
        },
        {
          "internalType": "address payable",
          "name": "previousOwner",
          "type": "address"
        },
        {
          "internalType": "uint256",
          "name": "price",
          "type": "uint256"
        },
        {
          "internalType": "bool",
          "name": "isBiddingAvailable",
          "type": "bool"
        },
        {
          "internalType": "uint256",
          "name": "numberOfTransfers",
          "type": "uint256"
        },
        {
          "components": [
            {
              "internalType": "address",
              "name": "bidderAddress",
              "type": "address"
            },
            {
              "internalType": "uint256",
              "name": "amount",
              "type": "uint256"
            },
            {
              "internalType": "bool",
              "name": "approved",
              "type": "bool"
            }
          ],
          "internalType": "struct NFTBlocks.Bidder",
          "name": "highestBidder",
          "type": "tuple"
        },
        {
          "internalType": "bool",
          "name": "forSale",
          "type": "bool"
        }
      ],
      "stateMutability": "view",
      "type": "function"
    },
    {
      "inputs": [
        {
          "internalType": "address",
          "name": "to",
          "type": "address"
        },
        {
          "internalType": "uint256",
          "name": "tokenId",
          "type": "uint256"
        }
      ],
      "name": "approve",
      "outputs": [],
      "stateMutability": "nonpayable",
      "type": "function"
    },
    {
      "inputs": [
        {
          "internalType": "uint256",
          "name": "_tokenId",
          "type": "uint256"
        }
      ],
      "name": "approveBid",
      "outputs": [],
      "stateMutability": "nonpayable",
      "type": "function"
    },
    {
      "inputs": [
        {
          "internalType": "address",
          "name": "owner",
          "type": "address"
        }
      ],
      "name": "balanceOf",
      "outputs": [
        {
          "internalType": "uint256",
          "name": "",
          "type": "uint256"
        }
      ],
      "stateMutability": "view",
      "type": "function"
    },
    {
      "inputs": [],
      "name": "baseURI",
      "outputs": [
        {
          "internalType": "string",
          "name": "",
          "type": "string"
        }
      ],
      "stateMutability": "view",
      "type": "function"
    },
    {
      "inputs": [
        {
          "internalType": "uint256",
          "name": "_tokenId",
          "type": "uint256"
        },
        {
          "internalType": "uint256",
          "name": "_bidAmount",
          "type": "uint256"
        }
      ],
      "name": "bidOnToken",
      "outputs": [],
      "stateMutability": "nonpayable",
      "type": "function"
    },
    {
      "inputs": [
        {
          "internalType": "uint256",
          "name": "_tokenId",
          "type": "uint256"
        }
      ],
      "name": "buyToken",
      "outputs": [],
      "stateMutability": "payable",
      "type": "function"
    },
    {
      "inputs": [
        {
          "internalType": "uint256",
          "name": "_tokenId",
          "type": "uint256"
        },
        {
          "internalType": "uint256",
          "name": "_newPrice",
          "type": "uint256"
        }
      ],
      "name": "changeTokenPrice",
      "outputs": [],
      "stateMutability": "nonpayable",
      "type": "function"
    },
    {
      "inputs": [],
      "name": "collectionName",
      "outputs": [
        {
          "internalType": "string",
          "name": "",
          "type": "string"
        }
      ],
      "stateMutability": "view",
      "type": "function"
    },
    {
      "inputs": [],
      "name": "collectionNameSymbol",
      "outputs": [
        {
          "internalType": "string",
          "name": "",
          "type": "string"
        }
      ],
      "stateMutability": "view",
      "type": "function"
    },
    {
      "inputs": [
        {
          "internalType": "string",
          "name": "",
          "type": "string"
        }
      ],
      "name": "colorExists",
      "outputs": [
        {
          "internalType": "bool",
          "name": "",
          "type": "bool"
        }
      ],
      "stateMutability": "view",
      "type": "function"
    },
    {
      "inputs": [
        {
          "internalType": "uint256",
          "name": "tokenId",
          "type": "uint256"
        }
      ],
      "name": "getApproved",
      "outputs": [
        {
          "internalType": "address",
          "name": "",
          "type": "address"
        }
      ],
      "stateMutability": "view",
      "type": "function"
    },
    {
      "inputs": [
        {
          "internalType": "uint256",
          "name": "_tokenId",
          "type": "uint256"
        }
      ],
      "name": "getHighestBidder",
      "outputs": [
        {
          "internalType": "address",
          "name": "",
          "type": "address"
        },
        {
          "internalType": "uint256",
          "name": "",
          "type": "uint256"
        },
        {
          "internalType": "bool",
          "name": "",
          "type": "bool"
        }
      ],
      "stateMutability": "view",
      "type": "function"
    },
    {
      "inputs": [],
      "name": "getNumberOfTokensMinted",
      "outputs": [
        {
          "internalType": "uint256",
          "name": "",
          "type": "uint256"
        }
      ],
      "stateMutability": "view",
      "type": "function"
    },
    {
      "inputs": [
        {
          "internalType": "uint256",
          "name": "_tokenId",
          "type": "uint256"
        }
      ],
      "name": "getTokenExists",
      "outputs": [
        {
          "internalType": "bool",
          "name": "",
          "type": "bool"
        }
      ],
      "stateMutability": "view",
      "type": "function"
    },
    {
      "inputs": [
        {
          "internalType": "uint256",
          "name": "_tokenId",
          "type": "uint256"
        }
      ],
      "name": "getTokenMetaData",
      "outputs": [
        {
          "internalType": "string",
          "name": "",
          "type": "string"
        }
      ],
      "stateMutability": "view",
      "type": "function"
    },
    {
      "inputs": [
        {
          "internalType": "uint256",
          "name": "_tokenId",
          "type": "uint256"
        }
      ],
      "name": "getTokenOwner",
      "outputs": [
        {
          "internalType": "address",
          "name": "",
          "type": "address"
        }
      ],
      "stateMutability": "view",
      "type": "function"
    },
    {
      "inputs": [
        {
          "internalType": "address",
          "name": "_owner",
          "type": "address"
        }
      ],
      "name": "getTotalNumberOfTokensOwnedByAnAddress",
      "outputs": [
        {
          "internalType": "uint256",
          "name": "",
          "type": "uint256"
        }
      ],
      "stateMutability": "view",
      "type": "function"
    },
    {
      "inputs": [
        {
          "internalType": "address",
          "name": "owner",
          "type": "address"
        },
        {
          "internalType": "address",
          "name": "operator",
          "type": "address"
        }
      ],
      "name": "isApprovedForAll",
      "outputs": [
        {
          "internalType": "bool",
          "name": "",
          "type": "bool"
        }
      ],
      "stateMutability": "view",
      "type": "function"
    },
    {
      "inputs": [
        {
          "internalType": "string",
          "name": "_name",
          "type": "string"
        },
        {
          "internalType": "string",
          "name": "_tokenURI",
          "type": "string"
        },
        {
          "internalType": "uint256",
          "name": "_price",
          "type": "uint256"
        },
        {
          "internalType": "string[]",
          "name": "_colors",
          "type": "string[]"
        },
        {
          "internalType": "bool",
          "name": "_isBiddingAvailable",
          "type": "bool"
        }
      ],
      "name": "mintNFTBlock",
      "outputs": [],
      "stateMutability": "nonpayable",
      "type": "function"
    },
    {
      "inputs": [],
      "name": "name",
      "outputs": [
        {
          "internalType": "string",
          "name": "",
          "type": "string"
        }
      ],
      "stateMutability": "view",
      "type": "function"
    },
    {
      "inputs": [],
      "name": "nftBlockCounter",
      "outputs": [
        {
          "internalType": "uint256",
          "name": "",
          "type": "uint256"
        }
      ],
      "stateMutability": "view",
      "type": "function"
    },
    {
      "inputs": [
        {
          "internalType": "uint256",
          "name": "tokenId",
          "type": "uint256"
        }
      ],
      "name": "ownerOf",
      "outputs": [
        {
          "internalType": "address",
          "name": "",
          "type": "address"
        }
      ],
      "stateMutability": "view",
      "type": "function"
    },
    {
      "inputs": [
        {
          "internalType": "address",
          "name": "from",
          "type": "address"
        },
        {
          "internalType": "address",
          "name": "to",
          "type": "address"
        },
        {
          "internalType": "uint256",
          "name": "tokenId",
          "type": "uint256"
        }
      ],
      "name": "safeTransferFrom",
      "outputs": [],
      "stateMutability": "nonpayable",
      "type": "function"
    },
    {
      "inputs": [
        {
          "internalType": "address",
          "name": "from",
          "type": "address"
        },
        {
          "internalType": "address",
          "name": "to",
          "type": "address"
        },
        {
          "internalType": "uint256",
          "name": "tokenId",
          "type": "uint256"
        },
        {
          "internalType": "bytes",
          "name": "_data",
          "type": "bytes"
        }
      ],
      "name": "safeTransferFrom",
      "outputs": [],
      "stateMutability": "nonpayable",
      "type": "function"
    },
    {
      "inputs": [
        {
          "internalType": "address",
          "name": "operator",
          "type": "address"
        },
        {
          "internalType": "bool",
          "name": "approved",
          "type": "bool"
        }
      ],
      "name": "setApprovalForAll",
      "outputs": [],
      "stateMutability": "nonpayable",
      "type": "function"
    },
    {
      "inputs": [
        {
          "internalType": "bytes4",
          "name": "interfaceId",
          "type": "bytes4"
        }
      ],
      "name": "supportsInterface",
      "outputs": [
        {
          "internalType": "bool",
          "name": "",
          "type": "bool"
        }
      ],
      "stateMutability": "view",
      "type": "function"
    },
    {
      "inputs": [],
      "name": "symbol",
      "outputs": [
        {
          "internalType": "string",
          "name": "",
          "type": "string"
        }
      ],
      "stateMutability": "view",
      "type": "function"
    },
    {
      "inputs": [
        {
          "internalType": "uint256",
          "name": "_tokenId",
          "type": "uint256"
        }
      ],
      "name": "toggleForBidding",
      "outputs": [],
      "stateMutability": "nonpayable",
      "type": "function"
    },
    {
      "inputs": [
        {
          "internalType": "uint256",
          "name": "_tokenId",
          "type": "uint256"
        }
      ],
      "name": "toggleForSale",
      "outputs": [],
      "stateMutability": "nonpayable",
      "type": "function"
    },
    {
      "inputs": [
        {
          "internalType": "uint256",
          "name": "index",
          "type": "uint256"
        }
      ],
      "name": "tokenByIndex",
      "outputs": [
        {
          "internalType": "uint256",
          "name": "",
          "type": "uint256"
        }
      ],
      "stateMutability": "view",
      "type": "function"
    },
    {
      "inputs": [
        {
          "internalType": "string",
          "name": "",
          "type": "string"
        }
      ],
      "name": "tokenNameExists",
      "outputs": [
        {
          "internalType": "bool",
          "name": "",
          "type": "bool"
        }
      ],
      "stateMutability": "view",
      "type": "function"
    },
    {
      "inputs": [
        {
          "internalType": "address",
          "name": "owner",
          "type": "address"
        },
        {
          "internalType": "uint256",
          "name": "index",
          "type": "uint256"
        }
      ],
      "name": "tokenOfOwnerByIndex",
      "outputs": [
        {
          "internalType": "uint256",
          "name": "",
          "type": "uint256"
        }
      ],
      "stateMutability": "view",
      "type": "function"
    },
    {
      "inputs": [
        {
          "internalType": "uint256",
          "name": "tokenId",
          "type": "uint256"
        }
      ],
      "name": "tokenURI",
      "outputs": [
        {
          "internalType": "string",
          "name": "",
          "type": "string"
        }
      ],
      "stateMutability": "view",
      "type": "function"
    },
    {
      "inputs": [
        {
          "internalType": "string",
          "name": "",
          "type": "string"
        }
      ],
      "name": "tokenURIExists",
      "outputs": [
        {
          "internalType": "bool",
          "name": "",
          "type": "bool"
        }
      ],
      "stateMutability": "view",
      "type": "function"
    },
    {
      "inputs": [],
      "name": "totalSupply",
      "outputs": [
        {
          "internalType": "uint256",
          "name": "",
          "type": "uint256"
        }
      ],
      "stateMutability": "view",
      "type": "function"
    },
    {
      "inputs": [
        {
          "internalType": "address",
          "name": "from",
          "type": "address"
        },
        {
          "internalType": "address",
          "name": "to",
          "type": "address"
        },
        {
          "internalType": "uint256",
          "name": "tokenId",
          "type": "uint256"
        }
      ],
      "name": "transferFrom",
      "outputs": [],
      "stateMutability": "nonpayable",
      "type": "function"
    }
  ],
  "bytecode": "0x60806040523480156200001157600080fd5b506040518060400160405280601581526020017f4e465420426c6f636b7320436f6c6c656374696f6e00000000000000000000008152506040518060400160405280600281526020017f4e42000000000000000000000000000000000000000000000000000000000000815250620000966301ffc9a760e01b6200016860201b60201c565b8160069080519060200190620000ae92919062000374565b508060079080519060200190620000c792919062000374565b50620000e06380ac58cd60e01b6200016860201b60201c565b620000f8635b5e139f60e01b6200016860201b60201c565b6200011063780e9d6360e01b6200016860201b60201c565b5050620001226200024060201b60201c565b600a90805190602001906200013992919062000374565b506200014a620002da60201b60201c565b600b90805190602001906200016192919062000374565b506200050c565b63ffffffff60e01b817bffffffffffffffffffffffffffffffffffffffffffffffffffffffff19161415620001d4576040517f08c379a0000000000000000000000000000000000000000000000000000000008152600401620001cb9062000485565b60405180910390fd5b6001600080837bffffffffffffffffffffffffffffffffffffffffffffffffffffffff19167bffffffffffffffffffffffffffffffffffffffffffffffffffffffff1916815260200190815260200160002060006101000a81548160ff02191690831515021790555050565b6060600680546200025190620004d6565b80601f01602080910402602001604051908101604052809291908181526020018280546200027f90620004d6565b8015620002d05780601f10620002a457610100808354040283529160200191620002d0565b820191906000526020600020905b815481529060010190602001808311620002b257829003601f168201915b5050505050905090565b606060078054620002eb90620004d6565b80601f01602080910402602001604051908101604052809291908181526020018280546200031990620004d6565b80156200036a5780601f106200033e576101008083540402835291602001916200036a565b820191906000526020600020905b8154815290600101906020018083116200034c57829003601f168201915b5050505050905090565b8280546200038290620004d6565b90600052602060002090601f016020900481019282620003a65760008555620003f2565b82601f10620003c157805160ff1916838001178555620003f2565b82800160010185558215620003f2579182015b82811115620003f1578251825591602001919060010190620003d4565b5b50905062000401919062000405565b5090565b5b808211156200042057600081600090555060010162000406565b5090565b600082825260208201905092915050565b7f4552433136353a20696e76616c696420696e7465726661636520696400000000600082015250565b60006200046d601c8362000424565b91506200047a8262000435565b602082019050919050565b60006020820190508181036000830152620004a0816200045e565b9050919050565b7f4e487b7100000000000000000000000000000000000000000000000000000000600052602260045260246000fd5b60006002820490506001821680620004ef57607f821691505b60208210811415620005065762000505620004a7565b5b50919050565b61523e806200051c6000396000f3fe6080604052600436106101ee5760003560e01c80636352211e1161010d578063a32018b9116100a0578063bae7e04e1161006f578063bae7e04e14610772578063c87b56dd146107b7578063cc151f3a146107f4578063e5326ab11461081f578063e985e9c51461084a576101ee565b8063a32018b9146106a6578063a46b1fac146106cf578063a5cd761f1461070c578063b88d4fde14610749576101ee565b806370a08231116100dc57806370a08231146105d85780638d44807c1461061557806395d89b4114610652578063a22cb4651461067d576101ee565b80636352211e1461050857806367c623cf146105455780636c0360eb146105825780636f9507f9146105ad576101ee565b80632d296bf11161018557806343d32ae71161015457806343d32ae71461043c5780634f6ccce7146104795780635b61a6cf146104b657806362e8e8ac146104df576101ee565b80632d296bf11461037d5780632f745c591461039957806342842e0e146103d657806343902850146103ff576101ee565b8063142687f3116101c1578063142687f3146102c157806318160ddd146102fe57806323b872dd1461032957806329d5457e14610352576101ee565b806301ffc9a7146101f357806306fdde0314610230578063081812fc1461025b578063095ea7b314610298575b600080fd5b3480156101ff57600080fd5b5061021a60048036038101906102159190613acb565b610887565b6040516102279190613b13565b60405180910390f35b34801561023c57600080fd5b506102456108ee565b6040516102529190613bc7565b60405180910390f35b34801561026757600080fd5b50610282600480360381019061027d9190613c1f565b610980565b60405161028f9190613c8d565b60405180910390f35b3480156102a457600080fd5b506102bf60048036038101906102ba9190613cd4565b610a05565b005b3480156102cd57600080fd5b506102e860048036038101906102e39190613c1f565b610b1d565b6040516102f59190613b13565b60405180910390f35b34801561030a57600080fd5b50610313610b34565b6040516103209190613d23565b60405180910390f35b34801561033557600080fd5b50610350600480360381019061034b9190613d3e565b610b45565b005b34801561035e57600080fd5b50610367610ba5565b6040516103749190613d23565b60405180910390f35b61039760048036038101906103929190613c1f565b610bab565b005b3480156103a557600080fd5b506103c060048036038101906103bb9190613cd4565b61116d565b6040516103cd9190613d23565b60405180910390f35b3480156103e257600080fd5b506103fd60048036038101906103f89190613d3e565b6111c8565b005b34801561040b57600080fd5b5061042660048036038101906104219190613d91565b6111e8565b6040516104339190613d23565b60405180910390f35b34801561044857600080fd5b50610463600480360381019061045e9190613ef3565b6111ff565b6040516104709190613b13565b60405180910390f35b34801561048557600080fd5b506104a0600480360381019061049b9190613c1f565b611235565b6040516104ad9190613d23565b60405180910390f35b3480156104c257600080fd5b506104dd60048036038101906104d89190613f9c565b611258565b005b3480156104eb57600080fd5b506105066004803603810190610501919061405c565b6116a8565b005b34801561051457600080fd5b5061052f600480360381019061052a9190613c1f565b611b30565b60405161053c9190613c8d565b60405180910390f35b34801561055157600080fd5b5061056c60048036038101906105679190613c1f565b611b67565b6040516105799190613bc7565b60405180910390f35b34801561058e57600080fd5b50610597611b7f565b6040516105a49190613bc7565b60405180910390f35b3480156105b957600080fd5b506105c2611c11565b6040516105cf9190613bc7565b60405180910390f35b3480156105e457600080fd5b506105ff60048036038101906105fa9190613d91565b611c9f565b60405161060c9190613d23565b60405180910390f35b34801561062157600080fd5b5061063c60048036038101906106379190613ef3565b611d5e565b6040516106499190613b13565b60405180910390f35b34801561065e57600080fd5b50610667611d94565b6040516106749190613bc7565b60405180910390f35b34801561068957600080fd5b506106a4600480360381019061069f91906140c8565b611e26565b005b3480156106b257600080fd5b506106cd60048036038101906106c89190613c1f565b611fa7565b005b3480156106db57600080fd5b506106f660048036038101906106f19190613ef3565b612459565b6040516107039190613b13565b60405180910390f35b34801561071857600080fd5b50610733600480360381019061072e9190613c1f565b61248f565b6040516107409190613c8d565b60405180910390f35b34801561075557600080fd5b50610770600480360381019061076b91906141a9565b6124a6565b005b34801561077e57600080fd5b5061079960048036038101906107949190613c1f565b612508565b6040516107ae9998979695949392919061424d565b60405180910390f35b3480156107c357600080fd5b506107de60048036038101906107d99190613c1f565b6126d3565b6040516107eb9190613bc7565b60405180910390f35b34801561080057600080fd5b50610809612846565b6040516108169190613d23565b60405180910390f35b34801561082b57600080fd5b5061083461285a565b6040516108419190613bc7565b60405180910390f35b34801561085657600080fd5b50610871600480360381019061086c91906142e8565b6128e8565b60405161087e9190613b13565b60405180910390f35b6000806000837bffffffffffffffffffffffffffffffffffffffffffffffffffffffff19167bffffffffffffffffffffffffffffffffffffffffffffffffffffffff1916815260200190815260200160002060009054906101000a900460ff169050919050565b6060600680546108fd90614357565b80601f016020809104026020016040519081016040528092919081815260200182805461092990614357565b80156109765780601f1061094b57610100808354040283529160200191610976565b820191906000526020600020905b81548152906001019060200180831161095957829003601f168201915b5050505050905090565b600061098b8261297c565b6109ca576040517f08c379a00000000000000000000000000000000000000000000000000000000081526004016109c1906143fb565b60405180910390fd5b6004600083815260200190815260200160002060009054906101000a900473ffffffffffffffffffffffffffffffffffffffff169050919050565b6000610a1082611b30565b90508073ffffffffffffffffffffffffffffffffffffffff168373ffffffffffffffffffffffffffffffffffffffff161415610a81576040517f08c379a0000000000000000000000000000000000000000000000000000000008152600401610a789061448d565b60405180910390fd5b8073ffffffffffffffffffffffffffffffffffffffff16610aa0612999565b73ffffffffffffffffffffffffffffffffffffffff161480610acf5750610ace81610ac9612999565b6128e8565b5b610b0e576040517f08c379a0000000000000000000000000000000000000000000000000000000008152600401610b059061451f565b60405180910390fd5b610b1883836129a1565b505050565b600080610b298361297c565b905080915050919050565b6000610b406002612a5a565b905090565b610b56610b50612999565b82612a6f565b610b95576040517f08c379a0000000000000000000000000000000000000000000000000000000008152600401610b8c906145b1565b60405180910390fd5b610ba0838383612b4d565b505050565b600c5481565b600073ffffffffffffffffffffffffffffffffffffffff163373ffffffffffffffffffffffffffffffffffffffff161415610be557600080fd5b610bee8161297c565b610bf757600080fd5b6000610c0282611b30565b9050600073ffffffffffffffffffffffffffffffffffffffff168173ffffffffffffffffffffffffffffffffffffffff161415610c3e57600080fd5b3373ffffffffffffffffffffffffffffffffffffffff168173ffffffffffffffffffffffffffffffffffffffff161415610c7757600080fd5b6000600d60008481526020019081526020016000206040518061012001604052908160008201548152602001600182018054610cb290614357565b80601f0160208091040260200160405190810160405280929190818152602001828054610cde90614357565b8015610d2b5780601f10610d0057610100808354040283529160200191610d2b565b820191906000526020600020905b815481529060010190602001808311610d0e57829003601f168201915b50505050508152602001600282018054610d4490614357565b80601f0160208091040260200160405190810160405280929190818152602001828054610d7090614357565b8015610dbd5780601f10610d9257610100808354040283529160200191610dbd565b820191906000526020600020905b815481529060010190602001808311610da057829003601f168201915b505050505081526020016003820160009054906101000a900473ffffffffffffffffffffffffffffffffffffffff1673ffffffffffffffffffffffffffffffffffffffff1673ffffffffffffffffffffffffffffffffffffffff1681526020016004820160009054906101000a900473ffffffffffffffffffffffffffffffffffffffff1673ffffffffffffffffffffffffffffffffffffffff1673ffffffffffffffffffffffffffffffffffffffff1681526020016005820160009054906101000a900473ffffffffffffffffffffffffffffffffffffffff1673ffffffffffffffffffffffffffffffffffffffff1673ffffffffffffffffffffffffffffffffffffffff16815260200160068201548152602001600782015481526020016008820160009054906101000a900460ff16151515158152505090508060c00151341015610f0a57600080fd5b806101000151610f1957600080fd5b610f24823385612b4d565b6000816080015190508073ffffffffffffffffffffffffffffffffffffffff166108fc349081150290604051600060405180830381858888f19350505050158015610f73573d6000803e3d6000fd5b5081608001518260a0019073ffffffffffffffffffffffffffffffffffffffff16908173ffffffffffffffffffffffffffffffffffffffff168152505033826080019073ffffffffffffffffffffffffffffffffffffffff16908173ffffffffffffffffffffffffffffffffffffffff168152505060018260e001818151610ffb9190614600565b9150818152505081600d600086815260200190815260200160002060008201518160000155602082015181600101908051906020019061103c9291906139bc565b5060408201518160020190805190602001906110599291906139bc565b5060608201518160030160006101000a81548173ffffffffffffffffffffffffffffffffffffffff021916908373ffffffffffffffffffffffffffffffffffffffff16021790555060808201518160040160006101000a81548173ffffffffffffffffffffffffffffffffffffffff021916908373ffffffffffffffffffffffffffffffffffffffff16021790555060a08201518160050160006101000a81548173ffffffffffffffffffffffffffffffffffffffff021916908373ffffffffffffffffffffffffffffffffffffffff16021790555060c0820151816006015560e082015181600701556101008201518160080160006101000a81548160ff02191690831515021790555090505050505050565b60006111c082600160008673ffffffffffffffffffffffffffffffffffffffff1673ffffffffffffffffffffffffffffffffffffffff168152602001908152602001600020612d6490919063ffffffff16565b905092915050565b6111e3838383604051806020016040528060008152506124a6565b505050565b6000806111f483611c9f565b905080915050919050565b6010818051602081018201805184825260208301602085012081835280955050505050506000915054906101000a900460ff1681565b60008061124c836002612d7e90919063ffffffff16565b50905080915050919050565b600073ffffffffffffffffffffffffffffffffffffffff163373ffffffffffffffffffffffffffffffffffffffff16141561129257600080fd5b600c60008154809291906112a590614656565b91905055506112b5600c5461297c565b156112bf57600080fd5b60005b8282905081101561133b57600f8383838181106112e2576112e161469f565b5b90506020028101906112f491906146dd565b604051611302929190614770565b908152602001604051809103902060009054906101000a900460ff161561132857600080fd5b808061133390614656565b9150506112c2565b5060108460405161134c91906147ba565b908152602001604051809103902060009054906101000a900460ff161561137257600080fd5b600e8560405161138291906147ba565b908152602001604051809103902060009054906101000a900460ff16156113a857600080fd5b6113b433600c54612daa565b6113c0600c5485612f38565b60005b8282905081101561143d576001600f8484848181106113e5576113e461469f565b5b90506020028101906113f791906146dd565b604051611405929190614770565b908152602001604051809103902060006101000a81548160ff021916908315150217905550808061143590614656565b9150506113c3565b50600160108560405161145091906147ba565b908152602001604051809103902060006101000a81548160ff0219169083151502179055506001600e8660405161148791906147ba565b908152602001604051809103902060006101000a81548160ff0219169083151502179055506000604051806101200160405280600c5481526020018781526020018681526020013373ffffffffffffffffffffffffffffffffffffffff1681526020013373ffffffffffffffffffffffffffffffffffffffff168152602001600073ffffffffffffffffffffffffffffffffffffffff1681526020018581526020016000815260200160011515815250905080600d6000600c5481526020019081526020016000206000820151816000015560208201518160010190805190602001906115759291906139bc565b5060408201518160020190805190602001906115929291906139bc565b5060608201518160030160006101000a81548173ffffffffffffffffffffffffffffffffffffffff021916908373ffffffffffffffffffffffffffffffffffffffff16021790555060808201518160040160006101000a81548173ffffffffffffffffffffffffffffffffffffffff021916908373ffffffffffffffffffffffffffffffffffffffff16021790555060a08201518160050160006101000a81548173ffffffffffffffffffffffffffffffffffffffff021916908373ffffffffffffffffffffffffffffffffffffffff16021790555060c0820151816006015560e082015181600701556101008201518160080160006101000a81548160ff021916908315150217905550905050505050505050565b600073ffffffffffffffffffffffffffffffffffffffff163373ffffffffffffffffffffffffffffffffffffffff1614156116e257600080fd5b6116eb8261297c565b6116f457600080fd5b60006116ff83611b30565b90503373ffffffffffffffffffffffffffffffffffffffff168173ffffffffffffffffffffffffffffffffffffffff161461173957600080fd5b6000600d6000858152602001908152602001600020604051806101200160405290816000820154815260200160018201805461177490614357565b80601f01602080910402602001604051908101604052809291908181526020018280546117a090614357565b80156117ed5780601f106117c2576101008083540402835291602001916117ed565b820191906000526020600020905b8154815290600101906020018083116117d057829003601f168201915b5050505050815260200160028201805461180690614357565b80601f016020809104026020016040519081016040528092919081815260200182805461183290614357565b801561187f5780601f106118545761010080835404028352916020019161187f565b820191906000526020600020905b81548152906001019060200180831161186257829003601f168201915b505050505081526020016003820160009054906101000a900473ffffffffffffffffffffffffffffffffffffffff1673ffffffffffffffffffffffffffffffffffffffff1673ffffffffffffffffffffffffffffffffffffffff1681526020016004820160009054906101000a900473ffffffffffffffffffffffffffffffffffffffff1673ffffffffffffffffffffffffffffffffffffffff1673ffffffffffffffffffffffffffffffffffffffff1681526020016005820160009054906101000a900473ffffffffffffffffffffffffffffffffffffffff1673ffffffffffffffffffffffffffffffffffffffff1673ffffffffffffffffffffffffffffffffffffffff16815260200160068201548152602001600782015481526020016008820160009054906101000a900460ff1615151515815250509050828160c001818152505080600d60008681526020019081526020016000206000820151816000015560208201518160010190805190602001906119ff9291906139bc565b506040820151816002019080519060200190611a1c9291906139bc565b5060608201518160030160006101000a81548173ffffffffffffffffffffffffffffffffffffffff021916908373ffffffffffffffffffffffffffffffffffffffff16021790555060808201518160040160006101000a81548173ffffffffffffffffffffffffffffffffffffffff021916908373ffffffffffffffffffffffffffffffffffffffff16021790555060a08201518160050160006101000a81548173ffffffffffffffffffffffffffffffffffffffff021916908373ffffffffffffffffffffffffffffffffffffffff16021790555060c0820151816006015560e082015181600701556101008201518160080160006101000a81548160ff02191690831515021790555090505050505050565b6000611b60826040518060600160405280602981526020016151e0602991396002612fac9092919063ffffffff16565b9050919050565b60606000611b74836126d3565b905080915050919050565b606060098054611b8e90614357565b80601f0160208091040260200160405190810160405280929190818152602001828054611bba90614357565b8015611c075780601f10611bdc57610100808354040283529160200191611c07565b820191906000526020600020905b815481529060010190602001808311611bea57829003601f168201915b5050505050905090565b600b8054611c1e90614357565b80601f0160208091040260200160405190810160405280929190818152602001828054611c4a90614357565b8015611c975780601f10611c6c57610100808354040283529160200191611c97565b820191906000526020600020905b815481529060010190602001808311611c7a57829003601f168201915b505050505081565b60008073ffffffffffffffffffffffffffffffffffffffff168273ffffffffffffffffffffffffffffffffffffffff161415611d10576040517f08c379a0000000000000000000000000000000000000000000000000000000008152600401611d0790614843565b60405180910390fd5b611d57600160008473ffffffffffffffffffffffffffffffffffffffff1673ffffffffffffffffffffffffffffffffffffffff168152602001908152602001600020612fcb565b9050919050565b600f818051602081018201805184825260208301602085012081835280955050505050506000915054906101000a900460ff1681565b606060078054611da390614357565b80601f0160208091040260200160405190810160405280929190818152602001828054611dcf90614357565b8015611e1c5780601f10611df157610100808354040283529160200191611e1c565b820191906000526020600020905b815481529060010190602001808311611dff57829003601f168201915b5050505050905090565b611e2e612999565b73ffffffffffffffffffffffffffffffffffffffff168273ffffffffffffffffffffffffffffffffffffffff161415611e9c576040517f08c379a0000000000000000000000000000000000000000000000000000000008152600401611e93906148af565b60405180910390fd5b8060056000611ea9612999565b73ffffffffffffffffffffffffffffffffffffffff1673ffffffffffffffffffffffffffffffffffffffff16815260200190815260200160002060008473ffffffffffffffffffffffffffffffffffffffff1673ffffffffffffffffffffffffffffffffffffffff16815260200190815260200160002060006101000a81548160ff0219169083151502179055508173ffffffffffffffffffffffffffffffffffffffff16611f56612999565b73ffffffffffffffffffffffffffffffffffffffff167f17307eab39ab6107e8899845ad3d59bd9653f200f220920489ca2b5937696c3183604051611f9b9190613b13565b60405180910390a35050565b600073ffffffffffffffffffffffffffffffffffffffff163373ffffffffffffffffffffffffffffffffffffffff161415611fe157600080fd5b611fea8161297c565b611ff357600080fd5b6000611ffe82611b30565b90503373ffffffffffffffffffffffffffffffffffffffff168173ffffffffffffffffffffffffffffffffffffffff161461203857600080fd5b6000600d6000848152602001908152602001600020604051806101200160405290816000820154815260200160018201805461207390614357565b80601f016020809104026020016040519081016040528092919081815260200182805461209f90614357565b80156120ec5780601f106120c1576101008083540402835291602001916120ec565b820191906000526020600020905b8154815290600101906020018083116120cf57829003601f168201915b5050505050815260200160028201805461210590614357565b80601f016020809104026020016040519081016040528092919081815260200182805461213190614357565b801561217e5780601f106121535761010080835404028352916020019161217e565b820191906000526020600020905b81548152906001019060200180831161216157829003601f168201915b505050505081526020016003820160009054906101000a900473ffffffffffffffffffffffffffffffffffffffff1673ffffffffffffffffffffffffffffffffffffffff1673ffffffffffffffffffffffffffffffffffffffff1681526020016004820160009054906101000a900473ffffffffffffffffffffffffffffffffffffffff1673ffffffffffffffffffffffffffffffffffffffff1673ffffffffffffffffffffffffffffffffffffffff1681526020016005820160009054906101000a900473ffffffffffffffffffffffffffffffffffffffff1673ffffffffffffffffffffffffffffffffffffffff1673ffffffffffffffffffffffffffffffffffffffff16815260200160068201548152602001600782015481526020016008820160009054906101000a900460ff1615151515815250509050806101000151156122dc576000816101000190151590811515815250506122ef565b6001816101000190151590811515815250505b80600d60008581526020019081526020016000206000820151816000015560208201518160010190805190602001906123299291906139bc565b5060408201518160020190805190602001906123469291906139bc565b5060608201518160030160006101000a81548173ffffffffffffffffffffffffffffffffffffffff021916908373ffffffffffffffffffffffffffffffffffffffff16021790555060808201518160040160006101000a81548173ffffffffffffffffffffffffffffffffffffffff021916908373ffffffffffffffffffffffffffffffffffffffff16021790555060a08201518160050160006101000a81548173ffffffffffffffffffffffffffffffffffffffff021916908373ffffffffffffffffffffffffffffffffffffffff16021790555060c0820151816006015560e082015181600701556101008201518160080160006101000a81548160ff021916908315150217905550905050505050565b600e818051602081018201805184825260208301602085012081835280955050505050506000915054906101000a900460ff1681565b60008061249b83611b30565b905080915050919050565b6124b76124b1612999565b83612a6f565b6124f6576040517f08c379a00000000000000000000000000000000000000000000000000000000081526004016124ed906145b1565b60405180910390fd5b61250284848484612fe0565b50505050565b600d60205280600052604060002060009150905080600001549080600101805461253190614357565b80601f016020809104026020016040519081016040528092919081815260200182805461255d90614357565b80156125aa5780601f1061257f576101008083540402835291602001916125aa565b820191906000526020600020905b81548152906001019060200180831161258d57829003601f168201915b5050505050908060020180546125bf90614357565b80601f01602080910402602001604051908101604052809291908181526020018280546125eb90614357565b80156126385780601f1061260d57610100808354040283529160200191612638565b820191906000526020600020905b81548152906001019060200180831161261b57829003601f168201915b5050505050908060030160009054906101000a900473ffffffffffffffffffffffffffffffffffffffff16908060040160009054906101000a900473ffffffffffffffffffffffffffffffffffffffff16908060050160009054906101000a900473ffffffffffffffffffffffffffffffffffffffff16908060060154908060070154908060080160009054906101000a900460ff16905089565b60606126de8261297c565b61271d576040517f08c379a000000000000000000000000000000000000000000000000000000000815260040161271490614941565b60405180910390fd5b600060086000848152602001908152602001600020805461273d90614357565b80601f016020809104026020016040519081016040528092919081815260200182805461276990614357565b80156127b65780601f1061278b576101008083540402835291602001916127b6565b820191906000526020600020905b81548152906001019060200180831161279957829003601f168201915b5050505050905060006127c7611b7f565b90506000815114156127dd578192505050612841565b6000825111156128125780826040516020016127fa929190614961565b60405160208183030381529060405292505050612841565b8061281c8561303c565b60405160200161282d929190614961565b604051602081830303815290604052925050505b919050565b600080612851610b34565b90508091505090565b600a805461286790614357565b80601f016020809104026020016040519081016040528092919081815260200182805461289390614357565b80156128e05780601f106128b5576101008083540402835291602001916128e0565b820191906000526020600020905b8154815290600101906020018083116128c357829003601f168201915b505050505081565b6000600560008473ffffffffffffffffffffffffffffffffffffffff1673ffffffffffffffffffffffffffffffffffffffff16815260200190815260200160002060008373ffffffffffffffffffffffffffffffffffffffff1673ffffffffffffffffffffffffffffffffffffffff16815260200190815260200160002060009054906101000a900460ff16905092915050565b60006129928260026131af90919063ffffffff16565b9050919050565b600033905090565b816004600083815260200190815260200160002060006101000a81548173ffffffffffffffffffffffffffffffffffffffff021916908373ffffffffffffffffffffffffffffffffffffffff160217905550808273ffffffffffffffffffffffffffffffffffffffff16612a1483611b30565b73ffffffffffffffffffffffffffffffffffffffff167f8c5be1e5ebec7d5bd14f71427d1e84f3dd0314c0f7b2291e5b200ac8c7c3b92560405160405180910390a45050565b6000612a68826000016131c9565b9050919050565b6000612a7a8261297c565b612ab9576040517f08c379a0000000000000000000000000000000000000000000000000000000008152600401612ab0906149f7565b60405180910390fd5b6000612ac483611b30565b90508073ffffffffffffffffffffffffffffffffffffffff168473ffffffffffffffffffffffffffffffffffffffff161480612b3357508373ffffffffffffffffffffffffffffffffffffffff16612b1b84610980565b73ffffffffffffffffffffffffffffffffffffffff16145b80612b445750612b4381856128e8565b5b91505092915050565b8273ffffffffffffffffffffffffffffffffffffffff16612b6d82611b30565b73ffffffffffffffffffffffffffffffffffffffff1614612bc3576040517f08c379a0000000000000000000000000000000000000000000000000000000008152600401612bba90614a89565b60405180910390fd5b600073ffffffffffffffffffffffffffffffffffffffff168273ffffffffffffffffffffffffffffffffffffffff161415612c33576040517f08c379a0000000000000000000000000000000000000000000000000000000008152600401612c2a90614b1b565b60405180910390fd5b612c3e8383836131da565b612c496000826129a1565b612c9a81600160008673ffffffffffffffffffffffffffffffffffffffff1673ffffffffffffffffffffffffffffffffffffffff1681526020019081526020016000206131df90919063ffffffff16565b50612cec81600160008573ffffffffffffffffffffffffffffffffffffffff1673ffffffffffffffffffffffffffffffffffffffff1681526020019081526020016000206131f990919063ffffffff16565b50612d03818360026132139092919063ffffffff16565b50808273ffffffffffffffffffffffffffffffffffffffff168473ffffffffffffffffffffffffffffffffffffffff167fddf252ad1be2c89b69c2b068fc378daa952ba7f163c4a11628f55a4df523b3ef60405160405180910390a4505050565b6000612d738360000183613248565b60001c905092915050565b600080600080612d9186600001866132bc565b915091508160001c8160001c9350935050509250929050565b600073ffffffffffffffffffffffffffffffffffffffff168273ffffffffffffffffffffffffffffffffffffffff161415612e1a576040517f08c379a0000000000000000000000000000000000000000000000000000000008152600401612e1190614b87565b60405180910390fd5b612e238161297c565b15612e63576040517f08c379a0000000000000000000000000000000000000000000000000000000008152600401612e5a90614bf3565b60405180910390fd5b612e6f600083836131da565b612ec081600160008573ffffffffffffffffffffffffffffffffffffffff1673ffffffffffffffffffffffffffffffffffffffff1681526020019081526020016000206131f990919063ffffffff16565b50612ed7818360026132139092919063ffffffff16565b50808273ffffffffffffffffffffffffffffffffffffffff16600073ffffffffffffffffffffffffffffffffffffffff167fddf252ad1be2c89b69c2b068fc378daa952ba7f163c4a11628f55a4df523b3ef60405160405180910390a45050565b612f418261297c565b612f80576040517f08c379a0000000000000000000000000000000000000000000000000000000008152600401612f7790614c85565b60405180910390fd5b80600860008481526020019081526020016000209080519060200190612fa79291906139bc565b505050565b6000612fbf846000018460001b84613346565b60001c90509392505050565b6000612fd9826000016133e7565b9050919050565b612feb848484612b4d565b612ff7848484846133f8565b613036576040517f08c379a000000000000000000000000000000000000000000000000000000000815260040161302d90614d17565b60405180910390fd5b50505050565b60606000821415613084576040518060400160405280600181526020017f300000000000000000000000000000000000000000000000000000000000000081525090506131aa565b600082905060005b600082146130b657808061309f90614656565b915050600a826130af9190614d66565b915061308c565b60008167ffffffffffffffff8111156130d2576130d1613dc8565b5b6040519080825280601f01601f1916602001820160405280156131045781602001600182028036833780820191505090505b50905060006001836131169190614d97565b90508593505b600084146131a257600a846131319190614dcb565b603061313d9190614600565b60f81b82828061314c90614dfc565b93508151811061315f5761315e61469f565b5b60200101907effffffffffffffffffffffffffffffffffffffffffffffffffffffffffffff1916908160001a905350600a8461319b9190614d66565b935061311c565b819450505050505b919050565b60006131c1836000018360001b61355c565b905092915050565b600081600001805490509050919050565b505050565b60006131f1836000018360001b61357f565b905092915050565b600061320b836000018360001b613697565b905092915050565b600061323f846000018460001b8473ffffffffffffffffffffffffffffffffffffffff1660001b613707565b90509392505050565b600081836000018054905011613293576040517f08c379a000000000000000000000000000000000000000000000000000000000815260040161328a90614e98565b60405180910390fd5b8260000182815481106132a9576132a861469f565b5b9060005260206000200154905092915050565b60008082846000018054905011613308576040517f08c379a00000000000000000000000000000000000000000000000000000000081526004016132ff90614f2a565b60405180910390fd5b60008460000184815481106133205761331f61469f565b5b906000526020600020906002020190508060000154816001015492509250509250929050565b600080846001016000858152602001908152602001600020549050600081141583906133a8576040517f08c379a000000000000000000000000000000000000000000000000000000000815260040161339f9190613bc7565b60405180910390fd5b50846000016001826133ba9190614d97565b815481106133cb576133ca61469f565b5b9060005260206000209060020201600101549150509392505050565b600081600001805490509050919050565b60006134198473ffffffffffffffffffffffffffffffffffffffff166137f3565b6134265760019050613554565b60006134ed63150b7a0260e01b61343b612999565b8887876040516024016134519493929190614f9f565b604051602081830303815290604052907bffffffffffffffffffffffffffffffffffffffffffffffffffffffff19166020820180517bffffffffffffffffffffffffffffffffffffffffffffffffffffffff83818316178352505050506040518060600160405280603281526020016151ae603291398773ffffffffffffffffffffffffffffffffffffffff166138069092919063ffffffff16565b90506000818060200190518101906135059190615000565b905063150b7a0260e01b7bffffffffffffffffffffffffffffffffffffffffffffffffffffffff1916817bffffffffffffffffffffffffffffffffffffffffffffffffffffffff191614925050505b949350505050565b600080836001016000848152602001908152602001600020541415905092915050565b6000808360010160008481526020019081526020016000205490506000811461368b5760006001826135b19190614d97565b90506000600186600001805490506135c99190614d97565b905060008660000182815481106135e3576135e261469f565b5b90600052602060002001549050808760000184815481106136075761360661469f565b5b90600052602060002001819055506001836136229190614600565b876001016000838152602001908152602001600020819055508660000180548061364f5761364e61502d565b5b60019003818190600052602060002001600090559055866001016000878152602001908152602001600020600090556001945050505050613691565b60009150505b92915050565b60006136a3838361381e565b6136fc578260000182908060018154018082558091505060019003906000526020600020016000909190919091505582600001805490508360010160008481526020019081526020016000208190555060019050613701565b600090505b92915050565b60008084600101600085815260200190815260200160002054905060008114156137ae578460000160405180604001604052808681526020018581525090806001815401808255809150506001900390600052602060002090600202016000909190919091506000820151816000015560208201518160010155505084600001805490508560010160008681526020019081526020016000208190555060019150506137ec565b82856000016001836137c09190614d97565b815481106137d1576137d061469f565b5b90600052602060002090600202016001018190555060009150505b9392505050565b600080823b905060008111915050919050565b60606138158484600085613841565b90509392505050565b600080836001016000848152602001908152602001600020541415905092915050565b606082471015613886576040517f08c379a000000000000000000000000000000000000000000000000000000000815260040161387d906150ce565b60405180910390fd5b61388f856137f3565b6138ce576040517f08c379a00000000000000000000000000000000000000000000000000000000081526004016138c59061513a565b60405180910390fd5b6000808673ffffffffffffffffffffffffffffffffffffffff1685876040516138f79190615196565b60006040518083038185875af1925050503d8060008114613934576040519150601f19603f3d011682016040523d82523d6000602084013e613939565b606091505b5091509150613949828286613955565b92505050949350505050565b60608315613965578290506139b5565b6000835111156139785782518084602001fd5b816040517f08c379a00000000000000000000000000000000000000000000000000000000081526004016139ac9190613bc7565b60405180910390fd5b9392505050565b8280546139c890614357565b90600052602060002090601f0160209004810192826139ea5760008555613a31565b82601f10613a0357805160ff1916838001178555613a31565b82800160010185558215613a31579182015b82811115613a30578251825591602001919060010190613a15565b5b509050613a3e9190613a42565b5090565b5b80821115613a5b576000816000905550600101613a43565b5090565b6000604051905090565b600080fd5b600080fd5b60007fffffffff0000000000000000000000000000000000000000000000000000000082169050919050565b613aa881613a73565b8114613ab357600080fd5b50565b600081359050613ac581613a9f565b92915050565b600060208284031215613ae157613ae0613a69565b5b6000613aef84828501613ab6565b91505092915050565b60008115159050919050565b613b0d81613af8565b82525050565b6000602082019050613b286000830184613b04565b92915050565b600081519050919050565b600082825260208201905092915050565b60005b83811015613b68578082015181840152602081019050613b4d565b83811115613b77576000848401525b50505050565b6000601f19601f8301169050919050565b6000613b9982613b2e565b613ba38185613b39565b9350613bb3818560208601613b4a565b613bbc81613b7d565b840191505092915050565b60006020820190508181036000830152613be18184613b8e565b905092915050565b6000819050919050565b613bfc81613be9565b8114613c0757600080fd5b50565b600081359050613c1981613bf3565b92915050565b600060208284031215613c3557613c34613a69565b5b6000613c4384828501613c0a565b91505092915050565b600073ffffffffffffffffffffffffffffffffffffffff82169050919050565b6000613c7782613c4c565b9050919050565b613c8781613c6c565b82525050565b6000602082019050613ca26000830184613c7e565b92915050565b613cb181613c6c565b8114613cbc57600080fd5b50565b600081359050613cce81613ca8565b92915050565b60008060408385031215613ceb57613cea613a69565b5b6000613cf985828601613cbf565b9250506020613d0a85828601613c0a565b9150509250929050565b613d1d81613be9565b82525050565b6000602082019050613d386000830184613d14565b92915050565b600080600060608486031215613d5757613d56613a69565b5b6000613d6586828701613cbf565b9350506020613d7686828701613cbf565b9250506040613d8786828701613c0a565b9150509250925092565b600060208284031215613da757613da6613a69565b5b6000613db584828501613cbf565b91505092915050565b600080fd5b600080fd5b7f4e487b7100000000000000000000000000000000000000000000000000000000600052604160045260246000fd5b613e0082613b7d565b810181811067ffffffffffffffff82111715613e1f57613e1e613dc8565b5b80604052505050565b6000613e32613a5f565b9050613e3e8282613df7565b919050565b600067ffffffffffffffff821115613e5e57613e5d613dc8565b5b613e6782613b7d565b9050602081019050919050565b82818337600083830152505050565b6000613e96613e9184613e43565b613e28565b905082815260208101848484011115613eb257613eb1613dc3565b5b613ebd848285613e74565b509392505050565b600082601f830112613eda57613ed9613dbe565b5b8135613eea848260208601613e83565b91505092915050565b600060208284031215613f0957613f08613a69565b5b600082013567ffffffffffffffff811115613f2757613f26613a6e565b5b613f3384828501613ec5565b91505092915050565b600080fd5b600080fd5b60008083601f840112613f5c57613f5b613dbe565b5b8235905067ffffffffffffffff811115613f7957613f78613f3c565b5b602083019150836020820283011115613f9557613f94613f41565b5b9250929050565b600080600080600060808688031215613fb857613fb7613a69565b5b600086013567ffffffffffffffff811115613fd657613fd5613a6e565b5b613fe288828901613ec5565b955050602086013567ffffffffffffffff81111561400357614002613a6e565b5b61400f88828901613ec5565b945050604061402088828901613c0a565b935050606086013567ffffffffffffffff81111561404157614040613a6e565b5b61404d88828901613f46565b92509250509295509295909350565b6000806040838503121561407357614072613a69565b5b600061408185828601613c0a565b925050602061409285828601613c0a565b9150509250929050565b6140a581613af8565b81146140b057600080fd5b50565b6000813590506140c28161409c565b92915050565b600080604083850312156140df576140de613a69565b5b60006140ed85828601613cbf565b92505060206140fe858286016140b3565b9150509250929050565b600067ffffffffffffffff82111561412357614122613dc8565b5b61412c82613b7d565b9050602081019050919050565b600061414c61414784614108565b613e28565b90508281526020810184848401111561416857614167613dc3565b5b614173848285613e74565b509392505050565b600082601f8301126141905761418f613dbe565b5b81356141a0848260208601614139565b91505092915050565b600080600080608085870312156141c3576141c2613a69565b5b60006141d187828801613cbf565b94505060206141e287828801613cbf565b93505060406141f387828801613c0a565b925050606085013567ffffffffffffffff81111561421457614213613a6e565b5b6142208782880161417b565b91505092959194509250565b600061423782613c4c565b9050919050565b6142478161422c565b82525050565b600061012082019050614263600083018c613d14565b8181036020830152614275818b613b8e565b90508181036040830152614289818a613b8e565b9050614298606083018961423e565b6142a5608083018861423e565b6142b260a083018761423e565b6142bf60c0830186613d14565b6142cc60e0830185613d14565b6142da610100830184613b04565b9a9950505050505050505050565b600080604083850312156142ff576142fe613a69565b5b600061430d85828601613cbf565b925050602061431e85828601613cbf565b9150509250929050565b7f4e487b7100000000000000000000000000000000000000000000000000000000600052602260045260246000fd5b6000600282049050600182168061436f57607f821691505b6020821081141561438357614382614328565b5b50919050565b7f4552433732313a20617070726f76656420717565727920666f72206e6f6e657860008201527f697374656e7420746f6b656e0000000000000000000000000000000000000000602082015250565b60006143e5602c83613b39565b91506143f082614389565b604082019050919050565b60006020820190508181036000830152614414816143d8565b9050919050565b7f4552433732313a20617070726f76616c20746f2063757272656e74206f776e6560008201527f7200000000000000000000000000000000000000000000000000000000000000602082015250565b6000614477602183613b39565b91506144828261441b565b604082019050919050565b600060208201905081810360008301526144a68161446a565b9050919050565b7f4552433732313a20617070726f76652063616c6c6572206973206e6f74206f7760008201527f6e6572206e6f7220617070726f76656420666f7220616c6c0000000000000000602082015250565b6000614509603883613b39565b9150614514826144ad565b604082019050919050565b60006020820190508181036000830152614538816144fc565b9050919050565b7f4552433732313a207472616e736665722063616c6c6572206973206e6f74206f60008201527f776e6572206e6f7220617070726f766564000000000000000000000000000000602082015250565b600061459b603183613b39565b91506145a68261453f565b604082019050919050565b600060208201905081810360008301526145ca8161458e565b9050919050565b7f4e487b7100000000000000000000000000000000000000000000000000000000600052601160045260246000fd5b600061460b82613be9565b915061461683613be9565b9250827fffffffffffffffffffffffffffffffffffffffffffffffffffffffffffffffff0382111561464b5761464a6145d1565b5b828201905092915050565b600061466182613be9565b91507fffffffffffffffffffffffffffffffffffffffffffffffffffffffffffffffff821415614694576146936145d1565b5b600182019050919050565b7f4e487b7100000000000000000000000000000000000000000000000000000000600052603260045260246000fd5b600080fd5b600080fd5b600080fd5b600080833560016020038436030381126146fa576146f96146ce565b5b80840192508235915067ffffffffffffffff82111561471c5761471b6146d3565b5b602083019250600182023603831315614738576147376146d8565b5b509250929050565b600081905092915050565b60006147578385614740565b9350614764838584613e74565b82840190509392505050565b600061477d82848661474b565b91508190509392505050565b600061479482613b2e565b61479e8185614740565b93506147ae818560208601613b4a565b80840191505092915050565b60006147c68284614789565b915081905092915050565b7f4552433732313a2062616c616e636520717565727920666f7220746865207a6560008201527f726f206164647265737300000000000000000000000000000000000000000000602082015250565b600061482d602a83613b39565b9150614838826147d1565b604082019050919050565b6000602082019050818103600083015261485c81614820565b9050919050565b7f4552433732313a20617070726f766520746f2063616c6c657200000000000000600082015250565b6000614899601983613b39565b91506148a482614863565b602082019050919050565b600060208201905081810360008301526148c88161488c565b9050919050565b7f4552433732314d657461646174613a2055524920717565727920666f72206e6f60008201527f6e6578697374656e7420746f6b656e0000000000000000000000000000000000602082015250565b600061492b602f83613b39565b9150614936826148cf565b604082019050919050565b6000602082019050818103600083015261495a8161491e565b9050919050565b600061496d8285614789565b91506149798284614789565b91508190509392505050565b7f4552433732313a206f70657261746f7220717565727920666f72206e6f6e657860008201527f697374656e7420746f6b656e0000000000000000000000000000000000000000602082015250565b60006149e1602c83613b39565b91506149ec82614985565b604082019050919050565b60006020820190508181036000830152614a10816149d4565b9050919050565b7f4552433732313a207472616e73666572206f6620746f6b656e2074686174206960008201527f73206e6f74206f776e0000000000000000000000000000000000000000000000602082015250565b6000614a73602983613b39565b9150614a7e82614a17565b604082019050919050565b60006020820190508181036000830152614aa281614a66565b9050919050565b7f4552433732313a207472616e7366657220746f20746865207a65726f2061646460008201527f7265737300000000000000000000000000000000000000000000000000000000602082015250565b6000614b05602483613b39565b9150614b1082614aa9565b604082019050919050565b60006020820190508181036000830152614b3481614af8565b9050919050565b7f4552433732313a206d696e7420746f20746865207a65726f2061646472657373600082015250565b6000614b71602083613b39565b9150614b7c82614b3b565b602082019050919050565b60006020820190508181036000830152614ba081614b64565b9050919050565b7f4552433732313a20746f6b656e20616c7265616479206d696e74656400000000600082015250565b6000614bdd601c83613b39565b9150614be882614ba7565b602082019050919050565b60006020820190508181036000830152614c0c81614bd0565b9050919050565b7f4552433732314d657461646174613a2055524920736574206f66206e6f6e657860008201527f697374656e7420746f6b656e0000000000000000000000000000000000000000602082015250565b6000614c6f602c83613b39565b9150614c7a82614c13565b604082019050919050565b60006020820190508181036000830152614c9e81614c62565b9050919050565b7f4552433732313a207472616e7366657220746f206e6f6e20455243373231526560008201527f63656976657220696d706c656d656e7465720000000000000000000000000000602082015250565b6000614d01603283613b39565b9150614d0c82614ca5565b604082019050919050565b60006020820190508181036000830152614d3081614cf4565b9050919050565b7f4e487b7100000000000000000000000000000000000000000000000000000000600052601260045260246000fd5b6000614d7182613be9565b9150614d7c83613be9565b925082614d8c57614d8b614d37565b5b828204905092915050565b6000614da282613be9565b9150614dad83613be9565b925082821015614dc057614dbf6145d1565b5b828203905092915050565b6000614dd682613be9565b9150614de183613be9565b925082614df157614df0614d37565b5b828206905092915050565b6000614e0782613be9565b91506000821415614e1b57614e1a6145d1565b5b600182039050919050565b7f456e756d657261626c655365743a20696e646578206f7574206f6620626f756e60008201527f6473000000000000000000000000000000000000000000000000000000000000602082015250565b6000614e82602283613b39565b9150614e8d82614e26565b604082019050919050565b60006020820190508181036000830152614eb181614e75565b9050919050565b7f456e756d657261626c654d61703a20696e646578206f7574206f6620626f756e60008201527f6473000000000000000000000000000000000000000000000000000000000000602082015250565b6000614f14602283613b39565b9150614f1f82614eb8565b604082019050919050565b60006020820190508181036000830152614f4381614f07565b9050919050565b600081519050919050565b600082825260208201905092915050565b6000614f7182614f4a565b614f7b8185614f55565b9350614f8b818560208601613b4a565b614f9481613b7d565b840191505092915050565b6000608082019050614fb4600083018761423e565b614fc16020830186613c7e565b614fce6040830185613d14565b8181036060830152614fe08184614f66565b905095945050505050565b600081519050614ffa81613a9f565b92915050565b60006020828403121561501657615015613a69565b5b600061502484828501614feb565b91505092915050565b7f4e487b7100000000000000000000000000000000000000000000000000000000600052603160045260246000fd5b7f416464726573733a20696e73756666696369656e742062616c616e636520666f60008201527f722063616c6c0000000000000000000000000000000000000000000000000000602082015250565b60006150b8602683613b39565b91506150c38261505c565b604082019050919050565b600060208201905081810360008301526150e7816150ab565b9050919050565b7f416464726573733a2063616c6c20746f206e6f6e2d636f6e7472616374000000600082015250565b6000615124601d83613b39565b915061512f826150ee565b602082019050919050565b6000602082019050818103600083015261515381615117565b9050919050565b600081905092915050565b600061517082614f4a565b61517a818561515a565b935061518a818560208601613b4a565b80840191505092915050565b60006151a28284615165565b91508190509291505056fe4552433732313a207472616e7366657220746f206e6f6e20455243373231526563656976657220696d706c656d656e7465724552433732313a206f776e657220717565727920666f72206e6f6e6578697374656e7420746f6b656ea26469706673582212205bcfec24d158f3d827809ddbd40bbf523b328e1a477e663382a7a5b371ae9b7b64736f6c634300080a0033",
  "linkReferences": {},
  "deployedLinkReferences": {}
}